:020000040800F2
:10000000603A012049020008832A0008C12900083B
:10001000812A000815070008953300080000000039
:10002000000000000000000000000000A72A0008F7
:100030004D08000800000000A52A00083D2B00081C
:1000400063020008630200086302000863020008FC
:1000500063020008630200086302000863020008EC
:100060006302000863020008630200081907000821
:1000700025070008310700083D0700084907000868
:1000800055070008610700086302000863020008C2
:1000900063020008630200086302000863020008AC
:1000A000630200086302000863020008630200089C
:1000B00063020008952B0008630200086302000831
:1000C000630200086302000863020008630200087C
:1000D000630200084532000899320008ED3200083A
:1000E000630200086302000863020008630200085C
:1000F0006302000863020008630200086D0700083D
:10010000630200086302000863020008630200083B
:10011000F92C00084D2D0008A12B0008AD2B00087C
:100120006302000879070008630200086302000800
:1001300063020008BD0800086302000863020008AB
:1001400063020008630200086302000863020008FB
:1001500085070008910700089D0700084133000843
:1001600063020008630200086302000863020008DB
:100170006302000863020008630200080000000038
:10018000630200086302000800F002F800F044F87F
:100190000AA090E8000C82448344AAF10107DA45E2
:1001A00001D100F039F8AFF2090EBAE80F0013F0F0
:1001B000010F18BFFB1A43F001031847D4BC00001D
:1001C000F4BC0000103A24BF78C878C1FAD85207AE
:1001D00024BF30C830C144BF04680C6070470000C1
:1001E0000023002400250026103A28BF78C1FBD840
:1001F000520728BF30C148BF0B607047642900F028
:10020000AF80732900F0EF81002070471FB50BF01D
:10021000FFFC1FBD10B510BD00F04AFA1146FFF7F4
:10022000F5FF07F05FF800F068FA03B4FFF7F2FF9C
:1002300003BC03F0B0F8000030BF72B6704762B67E
:10024000704780F30888704709488047094800478D
:10025000FEE7FEE7FEE7FEE7FEE7FEE7FEE7FEE776
:10026000FEE7FEE704480549054A064B70470000D3
:10027000412B00088901000860340120603A012008
:100280006036012060360120704700000FB4044939
:1002900010B503AA029800F0ABF910BC5DF814FB8E
:1002A0000C0000202DE9F0410E460446002020629B
:1002B0002046E168884730B3252805D0D4E90121DC
:1002C0009047206A401CF2E7E168204600278847F3
:1002D000050018D0A5F14100192802D820354FF4A7
:1002E00000673246294620462760FFF787FF40B166
:1002F000012804D0F61D26F007060836D8E7361D7B
:10030000D6E72846DAE7206ABDE8F08170B50C46EA
:100310000546012A05D02878800600D5EA69002321
:1003200002E0012305E05B1C934202D2E05C00285E
:10033000F9D1A869E618C01AA861286A1844286289
:100340002846AFF3008004E0D5E9012114F8010B41
:100350009047B442F8D32846AFF3008070BD000048
:100360002DE9F0410646002410687529314616A58E
:1003700010D0AFF30080002802DA404213A507E056
:1003800031688A0701D512A502E0490704D511A5F5
:10039000012401E0AFF3008000210A2206F12407C6
:1003A00009E0B0FBF2FCB0FBF2F302FB1C003030C2
:1003B00078541846491C0028F3D123462A46304673
:1003C000BDE8F04100F0A4B8000000002D000000DE
:1003D0002B0000002000000040EA010310B59B073D
:1003E0000FD1042A0DD310C808C9121F9C42F8D09F
:1003F00020BA19BA884201D9012010BD4FF0FF3050
:1004000010BD1AB1D30703D0521C07E0002010BD65
:1004100010F8013B11F8014B1B1B07D110F8013BF1
:1004200011F8014B1B1B01D1921EF1D1184610BDD2
:10043000032A40F2308010F0030C00F0158011F810
:10044000013BBCF1020F624498BF11F801CB00F8E8
:10045000013B38BF11F8013BA2F1040298BF00F83C
:1004600001CB38BF00F8013B11F0030300F0D2804C
:10047000083AC0F0088051F8043B083A51F804CB20
:10048000A0E80810F5E7121D5CBF51F8043B40F8E6
:10049000043BAFF30080D20724BF11F8013B11F8F1
:1004A00001CB48BF11F8012B24BF00F8013B00F835
:1004B00001CB48BF00F8012B70474FF0000200B598
:1004C000134694469646203922BFA0E80C50A0E877
:1004D0000C50B1F12001BFF4F7AF090728BFA0E825
:1004E0000C5048BF0CC05DF804EB890028BF40F8F1
:1004F000042B08BF704748BF20F8022B11F0804F33
:1005000018BF00F8012B704770477047704770475D
:100510002DE9F0470D4699469246044600F124081D
:100520000168880604D5E06921F01001216000E02F
:100530000120A84201DD471B00E00027A1697A19CC
:1005400002EB0900081AA0612078C00602D42046F8
:10055000AFF30080002608E0D4E901211AF8060074
:100560009047206A401C761C20624E45F4DB2078C0
:10057000C0060AD52046AFF3008006E0D4E9012189
:1005800030209047206A401C2062381EA7F10107E6
:10059000F4DC07E0D4E9012118F805009047206A4F
:1005A000401C2062281EA5F10105F3DC2046AFF3B4
:1005B00000802078000602D50220BDE8F0870120E7
:1005C000FBE710B5436913B1AFF3008001E0FFF71B
:1005D0009DFE012010BD127800F124010A70002256
:1005E0004A700122EDE711684FF0FF32E9E70000A1
:1005F000074B70B50D467B4400F043F8044628468F
:1006000000F052F810B14FF0FF3070BD204670BDC1
:100610009B53000010B5203AC0F00B80B1E8185091
:10062000203AA0E81850B1E81850A0E81850BFF4DC
:10063000F5AF5FEA027C24BFB1E81850A0E818507B
:1006400044BF18C918C0BDE810405FEA827C24BFCF
:1006500051F8043B40F8043B08BF7047D20728BF5D
:1006600031F8023B48BF11F8012B28BF20F8023BAC
:1006700048BF00F8012B704701694A1C02610878E5
:10068000704700B58FB0CDE90131002105910549D2
:100690007944CDE9031011466846FFF703FE0FB019
:1006A00000BD0000E5FFFFFF007B00F08000704709
:1006B000754600F02BF8AE4605006946534620F01B
:1006C0000700854618B020B5FFF7CCFDBDE82040F7
:1006D0004FF000064FF000074FF000084FF0000BFE
:1006E00021F00701AC46ACE8C009ACE8C009ACE8B1
:1006F000C009ACE8C0098D46704710B50446AFF399
:1007000000802046BDE81040FFF78FBD00487047CD
:1007100000340120FEE700000148406B00F0ECB916
:10072000A01600200148406B00F0E6B95C060020EE
:100730000148406B00F0E0B9341100200148006B23
:1007400000F0DAB95C0600200148006B00F0D4B973
:10075000341100200148406B00F0CEB9F0000020B9
:100760000148006B00F0C8B9F00000200148006BA0
:1007700000F0C2B9A01600200148406B00F0BCB9DF
:100780000C1C00200148406B00F0B6B9C80B0020DB
:100790000148006B00F0B0B90C1C00200148006B50
:1007A00000F0AAB9C80B002001681823CAB2103A99
:1007B000B2FBF3F2054B6FF30901032A9B5CC3659F
:1007C00000D9091D816508467047000032BC000849
:1007D00010B5014600208B698A6A4FF0C07453B18E
:1007E000B3F5005F15D072B1012A0CD0022A0AD0ED
:1007F000032A09D104E01AB1012A06D0022A03D142
:10080000C96AC90100D5012010BDC96AA142FAD048
:1008100010BD002AF7D0012AF2D0022AF3D0032A11
:10082000F3D010BD30B50468256825F48025256017
:10083000046863608368402B036803D09960006894
:10084000C26030BD9A600068C16030BD7047000072
:10085000064908B509684FF4FA52B1FBF2F1414379
:10086000009100BF491E0091FBD208BD000000208E
:1008700038B50446006800F58050816941F4801164
:100880008161206800F58050806900900120FFF7A9
:10089000DFFF2068009900F58050816138BD026853
:1008A0000021002A08DB0268120405D40268D20580
:1008B00002D50068C0F30D410846704710B5094CD9
:1008C00001E006F0DDFCA06AFFF7E9FF0028F8D19F
:1008D00020684FF4803100F5805041614021416132
:1008E00010BD0000782100202DE9F041044621B11F
:1008F0004FF40060E060C000A060E06900260028BE
:1009000061D035462068402702683A490A40D4E958
:1009100002131943294341F4007111430160206817
:100920000568012000F062FA2068056020684760D1
:1009300020684568012000F059FA20684560206869
:1009400086602068C660206881694FF64172114058
:1009500041F08001816120688569012000F046FA3C
:10096000206885612068C6612068C569012000F0A3
:100970003DFA2068C561206800F5805081691E4AF3
:1009800011401E4A0A438261206800F58050856943
:10099000012000F02BFA206800F580508561206866
:1009A000174900F580500160206800F58050056807
:1009B000012000F01BFA206800F580500560A06956
:1009C000012803D009E04FF480659BE7206800F51B
:1009D0008050C1690B4A1143C16160690A4A81882C
:1009E00011640178D0F8010041EA00205064BDE8AC
:1009F000F08100000F8120FF233FDEF80400200279
:100A00008020C102400001000080024070B58021BA
:100A1000002007F063F80A4C80212060002007F0D6
:100A20005DF841F2D07560602946002007F056F865
:100A3000A0602946002007F051F8E060002070BD5A
:100A4000100000202DE9F0410446876D00F012FEF1
:100A5000054694F835000026022806D080206065FF
:100A600084F834600120BDE8F0812068016821F03D
:100A7000160101602068416921F080014161206C0C
:100A800008B9A06C20B12068016821F0080101605C
:100A90002068016821F0010101600BE000F0EAFD2F
:100AA000401B052806D92020606504F8346F032018
:100AB0006070D8E720680068C007EFD194F85C1038
:100AC0003F208840B86004F8346F01206070002037
:100AD000C9E790F83510022903D080214165012033
:100AE0007047052180F835100068016821F0010188
:100AF00001600020704700002DE9F84304464FF0E4
:100B00000008CDF8008064484FF41651A56D0068C8
:100B1000B0FBF1F72E6894F85C00082202FA00F1AD
:100B2000314210D02068016849070CD5016821F0D6
:100B30000401016094F85C0002FA00F1A960606DA4
:100B400040F00100606594F85C10544888403042E1
:100B500008D021684969090604D5A860606D40F095
:100B6000020060654D4894F85C10C01C884030421B
:100B700008D021680968890704D5A860606D40F035
:100B80000400606594F85C1010208840304218D052
:100B900021680968090714D5A8602068016849031D
:100BA00004D50068000308D5A16C07E00168C905F9
:100BB00003D4016821F008010160216C09B12046CD
:100BC000884794F85C102020884030424FF001069E
:100BD00031D021680968C9062DD5A86094F8350080
:100BE00005282068016806D0490347D5006800033E
:100BF0001DD4616C1CE021F0160101602068416980
:100C000021F080014161206C08B9A06C20B12068FE
:100C1000016821F00801016094F85C103F208840D1
:100C2000A86084F8348084F83560216D1FE0E16BA2
:100C300009B120468847606D00282BD0606DC00741
:100C400014D0052084F835002068016821F00101E6
:100C500001600098401C0090B84203D820680068EA
:100C6000C007F6D184F8348084F83560E16C00293F
:100C700010D001B02046BDE8F04308470168C9051F
:100C8000D5D4016821F01001016084F8348084F823
:100C90003560CCE7BDE8F88300000020010080004B
:100CA0002DE9F041044600F0E5FC05465CB1002664
:100CB00084F83460022084F835002068016821F04F
:100CC000010101600DE00120BDE8F08100F0D2FCDF
:100CD000401B052805D920206065032084F83500D5
:100CE000F2E720680068C007F0D121680A68204850
:100CF0000240D4E901031843D4E903352B431843D8
:100D000063691843A3691843E3691843236A1843C6
:100D10001043626A042A03D1D4E90B231A43104317
:100D2000086020684069656A20F0070128460D4385
:100D3000012704280CD1A06A0543E06A40B120468F
:100D4000FFF746FD20B14020606584F83570BAE7B2
:100D5000206845612046FFF727FD94F85C203F217D
:100D600091408160666584F835700020ACE7000032
:100D70003F8010F02DE9F0410446866D90F8340074
:100D8000002501280DD0012084F8340094F8357036
:100D90000020012F07D084F8340002252846BDE842
:100DA000F0810220FBE7022784F835706065204659
:100DB000FFF738FD94F85C103F208840B060206851
:100DC000016841F0160101602068416941F080012D
:100DD0004161206C20B12068016841F00801016088
:100DE0002068016841F001010160D7E731B500F0EA
:100DF00041FC009C0546601C00D0641C00F03AFCDD
:100E0000401BA042FAD338BD2DE9F04390F845507D
:100E10000024012D0DD04FF0010980F845900225E6
:100E200080F8445044F2F45C4FF000485F1E816249
:100E300016E00220BDE8F08301EB4415C5F8008000
:100E4000C4EBC41606EB460602EB8606C5E901C6EE
:100E5000BC4203D205F12006EE6000E0E960641CAC
:100E60009C42E9D3026802F58052D16080F8449038
:100E7000002180F845100846DCE72DE9F04390F8A2
:100E800045400025012C0BD04FF0010C80F845C0E7
:100E9000022480F844404FF480195F1EC1621BE0B9
:100EA0000220BDE8F08301EB4514C4F80090C5EBC7
:100EB000C51606EB460602EB8606A660C6691EB995
:100EC000266846F440062660BD4203D204F120069F
:100ED000E66000E0E1606D1C9D42E4D3026802F52B
:100EE0008052116180F844C0002180F84510084606
:100EF000D7E710B590F84510012913D0012380F8E9
:100F00004530022180F84410816A0A680024002AD2
:100F100027DB0A68D20518D5826B521C8263012A2E
:100F200002D002E0022010BD016341630A68C2F3EF
:100F30000D42121FC263026B92680264C96840F8D6
:100F4000281F03774477002010BD0A68920503D557
:100F50008363C0E90C1402E0826B521C8263C9688F
:100F6000816200F8443F4470012010BD2DE9FC4728
:100F70004FF000060400B146009603D094F84400F8
:100F800018B107E00120BDE8FC8784F845602046E1
:100F900000F0E0F86548016841F4804101600068B4
:100FA00000F4804001906248016821F40001016072
:100FB0000168226A11430160206800F580500168D1
:100FC00041F00101016000F055FB05464FF4FA774E
:100FD00008E000F04FFB401BB84203D9032004F89F
:100FE000440F67E0206800F580500068C007F0D12A
:100FF0002068006920F01C0500F06CFC4D494E4A49
:101000000144914202D245F0080516E04B494C4A92
:101010000144914202D245F00C050EE049494A4A8A
:101020000144914209D3494908444949884202D2BE
:1010300045F0040501E045F01005206805614FF416
:1010400000420021204600F0F4F90125A8BBFF2052
:10105000FFF7CCFE606888B300F00CFB804641F2DD
:1010600088376A460121204600F0DCF800F002FBD8
:10107000A0EB0800B84217D800984007F1D54FF40C
:1010800080520021204600F0D4F9B0B900F0F2FA05
:1010900080466A460121204600F0C4F800F0EAFAD2
:1010A000A0EB0800B8420AD901212046FFF71CFC3A
:1010B00004F8445F0320667065E724E018E00098B8
:1010C0008006E6D56A461021204600F0ABF8D0B97C
:1010D0000098410703D54FF40061E16000E0E6604D
:1010E000800701D5A66019E04FF48040A06015E0AC
:1010F000E068A168C00840EA510082B200212046A1
:1011000000F097F930B101212046FFF7EDFB84F89C
:10111000445037E740F6FF70FFF768FE4946204627
:10112000FFF7E2FB84F8445000202CE744380240EB
:101130000438014000D3CEFEC0E1E40040F1E9FDF7
:1011400040787D0100796CFC005A6202001F0AFAA7
:1011500080F0FA022F4800B5026887B0002142F003
:1011600000720260026802F000720592026842F0AA
:1011700080620260026802F080620592026842F0BA
:1011800000620260026802F000620592026842F0AA
:1011900001020260026802F001020592026842F058
:1011A00002020260026802F002020592026842F046
:1011B00004020260026802F004020592026842F032
:1011C00040020260006800F0400005908620009018
:1011D0000220CDE90101032003900B200490694611
:1011E0000D4800F061F93220009069460B4800F08C
:1011F0005BF94FF4D04000906946094800F054F97B
:10120000002201213D2000F079FA3D2000F06BFA28
:1012100007B000BD30380240000002400008024024
:10122000001802402DE9F047044690F8440091462A
:1012300082281DD0822084F84400206802694FF67D
:10124000FF7502F01C03228A05EAC2221A434FF4FA
:10125000F86303EA8111114321F0020141F0010515
:10126000056100F007FA064601274FF480380FE0C9
:101270000220BDE8F08700F0FDF9801B404505D352
:1012800004F8447F002060700320F2E720680569BD
:10129000E807F0D12068406981B2C9F8001084F8ED
:1012A00044700020E5E7F8B5044690F845000128B1
:1012B00039D0012584F84550022084F84400206884
:1012C0000026016841F00801016020680068009074
:1012D0002846FFF7BDFA2168009808602068016879
:1012E00041F0040101602068006800900120FFF7D0
:1012F000AFFA2168009808602046FFF7B9FA206825
:1013000000F58050816941F400518161206800F549
:101310008050816941F00201816184F8445084F871
:1013200045600020F8BD0220F8BDF0B590F84530CA
:101330000022012B11D0012780F84570022380F88C
:101340004430002559B1C46A2368002B0ADA1221FF
:1013500000F8441F45700120F0BD0220F0BD00F8E8
:10136000447FF7E740F2F456B1420BD9B1FBF6FCEB
:10137000B1FBF6F306FB1C1CBCF1000F00D05B1C9C
:10138000012B43D1226842F040522260C26AC1F36D
:101390000C015160C16A0A6842F000420A60C16AE9
:1013A000C968C16234E0D4F800C02CF0405CC4F8D5
:1013B00000C032B9C46AD4F800C04CF0805CC4F8F4
:1013C00000C0C46A66605C1EA24214D1C46AD4F82C
:1013D00000C04CF0005CC4F800C0C3F10104C4EBD1
:1013E000C41404EB4404D0F82CC001EB8404C4F30F
:1013F0000C04CCF80440C46AD4F800C04CF0004C93
:10140000C4F800C0C46A521CE468C4629A42CAD3D9
:10141000016801F580514A69520705D504224A61E5
:10142000016801F580514D6000F8447F457000204F
:10143000F0BD2DE9F041044690F8440042281ED04A
:10144000422084F84400206803694FF6FF7603F0D9
:101450001C05238A06EAC3232B434FF4F86505EAEB
:101460008111194341F0030591B241612068056182
:1014700000F000F9064601274FF480380FE0022003
:10148000BDE8F08100F0F6F8801B404505D304F874
:10149000447F002060700320F2E720680569E807B8
:1014A000F0D184F84470EBE72DE9F84FDFF88C9128
:1014B000002209F1040A0AF1040B4FF00F080BF1A6
:1014C000040E01260B6896403340B34271D14C683C
:1014D000022C01D0122C11D1D40800EB84073D6AF4
:1014E0005407E40E08FA04FC25EA0C05D1F810C0F4
:1014F0000CFA04FC4CEA050CC7F820C0076854003D
:10150000032591F804C0A5400CF0030CAF430CFA7E
:1015100004FC4CEA070CC0F800C04F68012F05D04E
:10152000022F03D0112F01D0122F11D18768D1F8CB
:101530000CC0AF430CFA04FC4CEA070CC0F808C01E
:101540004768B7430E79C6F3001696403E4346609F
:10155000C668AE438D68A5403543C5604C68E4005D
:1015600065D5374C256845F480452560246822F010
:10157000030504F480440094324C2E19D6F8087800
:101580009407250F08FA05F4A7432F4CA04201D178
:10159000002424E02D4CA04201D101241FE02C4C5A
:1015A000A04201D102241AE02A4CA04202D1032415
:1015B00015E03CE0284CA04201D104240FE0274C68
:1015C000A04201D105240AE0254CA04201D1062405
:1015D00005E0244CA04201D1072400E00824AC40DF
:1015E0003C43C6F80848D9F800404D464E689C4335
:1015F000F60300D51C432C60DAF8004055464E68CF
:101600009C43B60300D51C432C60DBF800405D46CC
:101610004E689C43F60200D51C432C60DEF8004067
:1016200075464E689C43B60200D51C432C60521C84
:10163000102AFFF446AFBDE8F88F0000003C0140DF
:1016400044380240003001400000024000040240E3
:1016500000080240000C024000100240001402404A
:1016600000180240001C024001480068000C70474E
:10167000002004E0014800687047000004000020DA
:1016800002480168491C0160704700000400002006
:10169000094810B5016841F400710160016841F426
:1016A00080610160052000F049F80F2000F006F885
:1016B00000F018F8002010BD003C024010B50446B0
:1016C00007484FF47A710068B0FBF1F000F006FBB8
:1016D00000222146501E00F011F8002010BD00002D
:1016E00000000020704700F01F02012191404009D6
:1016F000800000F1E020C0F800117047F0B40E4BFC
:101700001B68C3F30223C3F10704042C00D904248B
:101710001D1D072D01D2002300E0DB1E012606FA65
:1017200004F56D1E0D409D409E40761E164045EA14
:101730000601F0BC01F0A6B90CED00E0064A00F08D
:10174000070110684FF6FF03184040EA01200349E3
:1017500008431060704700000CED00E00000FA053F
:101760002DE9F047DFF85C9104460E46D9F80000F9
:1017700000F00F01F0B28046B14207D289F80000B4
:10178000D9F8000000F00F00B04271D120784E4F20
:10179000800705D53868A16820F0F000084338605C
:1017A0002078C00756D048496068083901281AD007
:1017B00002281BD0032819D009688907002957DAA5
:1017C000396821F0030101433960FFF753FF0546F3
:1017D000606841F28831012811D002281CD003280A
:1017E0008A4625D032E009688903E7E7096889015C
:1017F000E4E7FFF73FFF411B514501D923E08A464B
:101800003868C0F381000128F3D123E0FFF732FFED
:10181000411B514501D916E08A463868C0F3810062
:101820000228F3D116E0FFF725FF411B51450AD8E6
:101830003868C0F381000328F5D10BE0FFF71AFFE9
:10184000411B514502D90320BDE8F087386810F0EC
:101850000C0FF3D1D9F80010484601F00F01B14246
:1018600008D980F80080006800F00F00B04201D075
:101870000120E9E72078400705D53868E16820F4C1
:10188000E050084338602078000706D538682169A1
:1018900020F4604040EAC100386000F051F8396837
:1018A000F02292FAA2F201F0F001B2FA82F2D140F3
:1018B000064A515CC840064908600F20FFF7FEFE4B
:1018C0000020C1E7003C0240083802401ABC000872
:1018D0000000002001480068704700000000002060
:1018E00008480949006809684FF4E05292FAA2F2E8
:1018F00001F4E051B2FA82F2D140044A515CC8408E
:101900007047000000000020083802402ABC000890
:1019100008480949006809684FF4604292FAA2F247
:1019200001F46041B2FA82F2D140044A515CC840ED
:101930007047000000000020083802402ABC000860
:1019400030B51948006810F00C01184812D0441046
:1019500004290ED008290DD1134A121F11681368EB
:1019600001F03F015D0247F6C07304D5B4FBF1F00E
:1019700003E0204630BDB0FBF1F01168194093FA46
:10198000A3F3B3FA83F3D940484311684FF44032CC
:1019900092FAA2F201F44031B2FA82F2D140491C2B
:1019A0004900B0FBF1F030BD083802400024F400DB
:1019B0002DE9F84F04460078DFF8F4A2BD4DC007CA
:1019C00048D0DAF800105046C1F38101012908D04F
:1019D0000068C0F3810002280AD1281D0068400277
:1019E00006D52868800335D56068002870D031E0BE
:1019F0006068B0F5803F10D0B0F5A02F286810D0F7
:101A000020F480302860286820F4802028606068F6
:101A1000A0B1FFF72FFE06460CE0286840F48030A6
:101A2000F4E740F480202860F7E7FFF723FE801BEF
:101A3000642873D828688003F7D50BE0FFF71AFEF7
:101A4000064604E0FFF716FE801B6428F1D82868DC
:101A50008003F7D42078DFF8608280074FF0010B15
:101A60004FF0000943D5DAF80010504611F00C0F82
:101A70004FF0F80709D00068C0F3810002280BD1AD
:101A80008B48001F0068400206D42868800713D5E1
:101A9000E06801281CD10FE0E068D0B1C8F800B0C0
:101AA000FFF7E8FD064604E0FFF7E4FD801B02288F
:101AB000BFD828688007F7D5286897FAA7F2216968
:101AC000B2FA82F220F0F8009140084328600EE05C
:101AD000EBE0C8F80090FFF7CDFD064604E0FFF705
:101AE000C9FD801B022819D828688007F7D4207800
:101AF000000722D56E4F714861696C3779B1C0F823
:101B000000B0FFF7B7FD064604E0FFF7B3FD801B0A
:101B1000022803D838688007F7D50EE079E0C0F8CE
:101B20000090FFF7A7FD064604E0FFF7A3FD801B2A
:101B300002286ED838688007F7D42078400750D53F
:101B40005B483830016841F08051016000685C4FAB
:101B500000F080500090386840F480703860FFF7E3
:101B600089FD064604E0FFF785FD801B022850D85A
:101B70003868C005F7D54E4FA068683701280FD0E8
:101B80000528386810D020F001003860386820F04F
:101B900004003860A068B0B1FFF76CFD06460EE0A7
:101BA000386840F00100F4E740F004003860F7E7DF
:101BB000FFF760FD811B41F2883081426DD83868A3
:101BC0008007F5D50DE0FFF755FD064606E0FFF767
:101BD00051FD811B41F2883081425ED83868800710
:101BE000F5D4A069F0B3DAF80010C1F3810102293D
:101BF0005BD00228484605D0C8F86000FFF73AFDE0
:101C000004464DE04746C8F86000FFF733FD06463E
:101C100005E042E0FFF72EFD801B02283DD8286832
:101C20008001F7D4D4E90701084347F6C07292FA5D
:101C3000A2F2616AB2FA82F29140A26A4FF0FF33D7
:101C400003EB52024FF4403393FAA3F3B3FA83F356
:101C50009A4011434FF0706292FAA2F20843B2FA2E
:101C600082F200E01FE0E16A914008431049091F39
:101C70000860C7F860B0FFF7FDFC044604E0FFF71A
:101C8000F9FC001B022808D828688001F7D50AE073
:101C9000FFF7F0FC001B022802D90320BDE8F88FF3
:101CA00028688001F4D40020F8E70120F6E700005E
:101CB000083802400038024000004742800E474288
:101CC000007000404FF0E0210428086903D020F0A4
:101CD00004000861704740F00400FAE710B5401EA8
:101CE000B0F1807F01D3012010BD4FF0E02460618E
:101CF0000F21601700F0C6FE0020A06107202061C0
:101D0000002010BD7047704710B5040003D094F850
:101D1000390010B107E0012010BD002084F8380020
:101D2000204600F00DF8022084F83900211D2068BB
:101D300000F042FF012084F83900002010BD0000AF
:101D400008B500681D4A1E4990420ED1086840F04F
:101D5000020008600868032200F0020000900121E0
:101D60001D20FFF7CBFC1D2022E0164A90420ED129
:101D7000086840F0100008600868012200F01000B8
:101D8000009002213620FFF7B9FC362010E00E4A01
:101D9000904211D1086840F02000086008680122D4
:101DA00000F02000009002213720FFF7A7FC372029
:101DB000BDE80840FFF797BC08BD000000040040E4
:101DC0004038024000100040001400400168CA681A
:101DD00042F00102CA600068016841F0010101603F
:101DE00000207047704770B50446006801694FF0E5
:101DF0000005C943890715D4C168C943890711D4AF
:101E0000E91E016101202076206880698007204654
:101E100002D0FFF7E7FF04E000F098F8204600F05A
:101E200096F8257620680169C943490717D4C16827
:101E3000C943490713D46FF00401016102202076E1
:101E40002068806910F4407F204602D0FFF7CAFF67
:101E500004E000F07BF8204600F079F82576206851
:101E60000169C943090716D4C168C943090712D4D7
:101E70006FF008010161042020762068C0698007A6
:101E8000204602D0FFF7AEFF04E000F05FF82046E6
:101E900000F05DF8257620680169C943C90617D4AA
:101EA000C168C943C90613D46FF01001016108204D
:101EB00020762068C06910F4407F204602D0FFF7EA
:101EC00091FF04E000F042F8204600F040F825764B
:101ED00020680169C943C90708D1C168C943C90756
:101EE00004D1891E0161204600F032F820680169A2
:101EF000C943090609D4C168C943090605D46FF06E
:101F0000800101612046FFF7FDFE20680169C94399
:101F1000490609D4C168C943490605D46FF0400198
:101F20000161204600F036F820680169C94389063E
:101F30000BD4C168C943890607D46FF02001016141
:101F40002046BDE87040FFF7DEBE70BD70477047A9
:101F500010B500680A49884210D00A49884205D164
:101F6000FFF78EFB08480168491C06E007498842D4
:101F700004D10748016801F57A71016010BD0000C5
:101F800000040040001000405000002000140040F9
:101F900020000020704710B504460068416994F89D
:101FA0003920C1F3C011212A0BD151B1416921F06F
:101FB00080014161206B08B1FEF744FD204600F02E
:101FC00069FF2068416994F83A20C1F38011222A00
:101FD0000BD151B1416921F040014161606B08B101
:101FE000FEF730FD204600F047FF002010BD70478F
:101FF00010F8391F407808437047000070B5026838
:1020000004461068D168536910F00F0F51D003F0E7
:10201000010501F4907635435DD0C20705D0CA05AD
:1020200003D5E26B42F00102E263420705D5DA070D
:1020300003D0E26B42F00202E263820705D5DA07C1
:1020400003D0E26B42F00402E263020705D5DA072F
:1020500003D0E26B42F00802E263E26B002A34D064
:10206000800604D5880602D5204600F01CFF2068B3
:102070004069E16BC0F3801001F008010143204684
:1020800024D000F0F9FE2068416949061AD541695B
:1020900021F040014161606BA0B11B490165606B9B
:1020A000FEF717FD002810D0606B016DBDE8704091
:1020B000084783060FD58B060DD52046BDE8704036
:1020C00000F0F1BE2046FFF792FF70BDFFF78FFFD3
:1020D0000020E06370BD030606D50B0604D520463C
:1020E000BDE8704001F07CB84006F3D54806F1D554
:1020F000D168204621F04001D160202184F83910B8
:1021000000F05CFC70BD0000A12D000870B504005B
:1021100004D094F83900002510B106E0012070BD0C
:1021200084F83850204600F023F8242084F8390041
:102130002068C16821F40051C160204600F0FAFE19
:102140002068016921F4904101612068416921F012
:102150002A0141612068C16841F40051C160E56312
:10216000202084F8390084F83A00002070BD000077
:102170002DE9F04FFF4ADFF800C487B00446002580
:10218000FD4E03680220143E012147024FF0070E66
:102190004FF0006B4FF0400A4FF00309934276D1A5
:1021A000DCF8002042F01002CCF80020DCF800201F
:1021B00002F010020592326842F001023260326889
:1021C000DFF8B88302F00102059202020092CDE925
:1021D0000101CDE9030E69464046FFF765F96946FE
:1021E00040460097FFF760F9002202212520FFF703
:1021F00085FA2520FFF777FA306840F480003060D8
:102200003068E04E00F480000590C6F8B4A406F2F1
:10221000AC464FF40038C6E903577561B561C6E9AD
:102220000758C6E90959F562D5483563C6E9000B78
:10223000D5488246FEF734FDD148C4F830A0303886
:10224000B4633066C6E919B5C6E91B577567B5674B
:10225000C6E91F58C6E92159CB48C6F88C5046F844
:10226000905F60300546FEF71BFD6563002202218A
:102270004620B460FFF742FA4620FFF734FA002206
:1022800002214420FFF73AFA442078E0FFE7BA4AF7
:10229000DFF8F882121F434577D1136843F4003307
:1022A0001360126802F400320592326842F00102B3
:1022B00032603268DFF8C48202F001020592042223
:1022C0000092CDE90101CDE9030E69464046FFF7D2
:1022D000EBF80820009069464046FFF7E5F8012238
:1022E00002212620FFF70AFA2620FFF7FCF93068C2
:1022F00040F4001030603068A64E00F400100590E5
:1023000046E903A546E901754FF480387560C6E9D2
:102310000258C6E90459B5619D48F56146E9050BC7
:10232000BA464F46A6F114008146FEF7B9FC98481C
:10233000C4F8309018387462F064C6E914B5C6E980
:10234000165A35667566C6E91A58C6E91C57B56748
:1023500006F14C00F5670546FEF7A2FC6563012215
:1023600002211120C6F88440FFF7C8F91120FFF7B9
:10237000BAF9012202211020FFF7C0F91020FFF75F
:10238000B2F907B0BDE8F08FFFE7DFF80C824345F4
:1023900077D1136843F480231360126802F480221B
:1023A0000592326842F0020232603268009702F011
:1023B00002020592CDE90101CDE9030EDFF8DC81CF
:1023C00069464046FFF770F84FF400600090694698
:1023D0004046FFF769F8022211462720FFF78EF9E1
:1023E0002720FFF780F9306840F400103060306833
:1023F000684E00F400100590AC366548C6F8B4A4E9
:1024000006F2B4464838C6E90157F5603561756192
:10241000B561C6E907597562B56246E9020B5948CC
:10242000C0388046FEF73CFC5948C4F83080783804
:102430003463B065C6E917B5C6E91957F5664FF4B8
:1024400080303567C6E91D50C6E91F594D48C6F8AA
:10245000845046F8885F60380546FEF721FC6563C6
:10246000022211460E20B460FFF748F90E20FFF754
:102470003AF9022211460C20FFF740F90C207EE7C2
:10248000FFE7DFF81C81434572D1136843F4002352
:102490001360126802F400220592326842F00402CE
:1024A000326032680097CDE90101039002F0040226
:1024B0000820CDE90402DFF8EC8069464046FEF7CB
:1024C000F3FF4FF40060009069464046FEF7ECFFD2
:1024D000032202213420FFF711F93420FFF703F91A
:1024E000306840F4001030603068274E00F400106F
:1024F0000590C0362648C6F8B4A406F2B446303873
:10250000C6E90157F56035617561B561C6E90759DE
:102510007562B56246E9020B23488046FEF7C0FBB0
:102520001B48C4F8308060383463B065C6E917B51D
:10253000C6E91957F5664FF480303567C6E91D5076
:10254000C6E91F591848C6F8845046F8885F6030BD
:102550000546FEF7A5FB6563032202210D20B4604A
:10256000FFF7CCF80D20FFF7BEF8032202211DE093
:1025700021E0000000100140443802400000024009
:10258000B8640240C80B00207410002000440040D2
:10259000A0600240B0050020004800400004024056
:1025A000004C004000080240E01500200F20FFF71B
:1025B000A5F80F20E3E6DFF8EC8143457BD11368F3
:1025C00043F480131360126802F48012059232689B
:1025D00042F004023260326802F00402059232686E
:1025E00042F008023260326802F0080205920422CA
:1025F0000092CDE9010103900820049069466A48E1
:10260000FEF752FF4FF48050009069466748FEF78E
:102610004BFF032202213520FFF770F83520FFF72A
:1026200062F8306840F4001030603068614E00F4A9
:1026300000100590C6F8B4A406F598665C4846E913
:10264000025735607560B560F560C6E90459B5613B
:10265000F56146E9050BB84657484F468146FEF7F7
:102660001FFB5348C4F83090A8387462F064C6E980
:1026700014B5C6E9165835667566B566F566C6E9D9
:102680001C574D48B5676030F5670546FEF708FBF7
:102690006563032202212F20C6F88440FFF72EF83D
:1026A0002F20FFF720F8032202210B20FFF726F846
:1026B0000B2064E6FFE7414A93427FF462AEDCF808
:1026C000002042F02002CCF80020DCF8002002F0CC
:1026D00020020592326842F004023260326802F051
:1026E00004020592C0220092CDE901010390082066
:1026F000049069462D48FEF7D7FE032202214720A9
:10270000FEF7FCFF4720FEF7EEFF306840F4800044
:1027100030603068284E00F480000590C0362848AC
:10272000C6F8B4A406F598664FF0206B46E9025748
:1027300035607560B560F560C6E90459B561F5614D
:1027400046E9050BB8461F484F468146FEF7A8FAF2
:102750001B48C4F8309078387462F064C6E914B548
:10276000C6E9165835667566B566F566C6E91C573E
:102770001448B5676030F5670546FEF791FA656362
:10278000032202214520C6F88440FEF7B7FF45200A
:10279000FEF7A9FF032202213920FEF7AFFF4520F3
:1027A000EDE5000000500040000C0240000802402F
:1027B000B8600240A01600204C1B0020001401400D
:1027C000A0640240B820002037B5044690F83A00D3
:1027D00082B0134620283AD1039AAAB3A3B394F83F
:1027E0003800012833D0012084F83800A262A38584
:1027F0000025E563222084F83A00616B1548C86320
:10280000616B15480864616B1448C864606B0565AA
:102810002168606B091DFEF7ADFA20680168416808
:10282000009184F83850C16841F48071C16020681B
:10283000416941F0010141612068416941F0400175
:102840004161002005B030BDFFE70120FAE702201A
:10285000F8E70000FB2D0008372E0008B12D000816
:102860000068294940F22B22884209D12748A0F864
:102870004020D0F87832416C4364C0F878123FE0D1
:102880002349884209D12348A0F84020D0F8783263
:10289000416C4364C0F8781232E01F49884209D184
:1028A0001E48A0F84020D0F87832416C4364C0F84C
:1028B000781225E01A49884209D11A48A0F8402028
:1028C000D0F87832416C4364C0F8781218E01649A9
:1028D000884209D11548A0F84020D0F87832416CE0
:1028E0004364C0F878120BE0114988420AD11148BC
:1028F000A0F84020D0F87832416C4364C0F87812D8
:10290000FFF762BF7047000000100140C80B0020B5
:1029100000440040F0000020004800405C06002019
:10292000004C00403411002000500040A016002050
:10293000001401400C1C002070470000F7B504464D
:1029400090F83900202831D1019969B362B394F825
:10295000380001282AD0012084F838002162A2849E
:10296000E2840025E563212084F83900236B1048B8
:10297000D863236B0F481864236B0F48D864206B0F
:10298000134605652668206B321DFEF7F3F92168B2
:102990006FF04000086084F838502068416941F0C9
:1029A000800141610020FEBD0120FEBD0220FEBD70
:1029B000412E00086F2E0008B12D000870477047A7
:1029C000FEE7000070B5284888B00025016841F096
:1029D000080101600068012400F008000790082049
:1029E000CDE902040320CDE9044002A91F48FEF707
:1029F0005BFDFDF722FC1E4EC6F88C52322006F518
:102A0000237600F029FD3460322000F025FDFDF72B
:102A100016FC184801788DF8001041788DF80110E7
:102A200081788DF80210C1788DF8031001798DF846
:102A3000041040798DF8050010480F4900F1140288
:102A4000C0E90014A1038160C910C1600582694614
:102A500082E83200E1050162FEF788FA002800D022
:102A6000012008B070BD000030380240000C024068
:102A70000080414280320120008002407821002005
:102A8000FEE770470907090E002806DA00F00F007C
:102A900000F1E02080F8141D704700F1E02080F87C
:102AA000001470477047704770B5214C92B00025F4
:102AB000266846F080562660246804F080541194FD
:102AC0001C4C266846F48046266024680DF1240CD0
:102AD00004F48044119401240094240401940224F9
:102AE00006948CE80D006605CDE907616846FEF79F
:102AF0005FFF00B1FEE70CA90F2081E831004FF421
:102B0000A0500F904FF48050109005210CA8FEF7B4
:102B100027FE00B1FEE7FEF7A7FD41F20101884262
:102B200004D10548016841F48071016012B070BDA4
:102B30004038024000700040003C0240FEF7A0BD5B
:102B40001048016841F4700101600F48016841F0CC
:102B5000010101600C4A00210832116002680B4B30
:102B60001A400260031D0A4A1A60026822F4802299
:102B7000026005480C30016002495806803908603F
:102B80007047000088ED00E000380240FFFFF6FECD
:102B9000103000240148FFF726B90000C0210020B2
:102BA0000148FFF720B90000FC2100200148FFF791
:102BB0001AB9000038220020F0B50268234D244ED7
:102BC000244FDFF894C0254B4FF0804EA84209D027
:102BD000704507D0B04205D0B84203D0604501D05F
:102BE000984203D122F070044A682243A8421BD0C5
:102BF000704519D0B04217D0B84215D0604513D0F7
:102C0000984211D0164CA0420ED0164CA0420BD0C8
:102C1000154CA04208D0154CA04205D0144CA0423F
:102C200002D0144CA04203D122F44074CA6822435B
:102C300002608A68C2620A688262A84201D0984231
:102C400001D10969016301214161F0BD000001402A
:102C50000004004000080040000C00400004014057
:102C6000004001400044014000480140001800407D
:102C7000001C0040002000400021032808D0094A21
:102C800006280AD007280CD151620748FFF79EB8E2
:102C90000648016004487838F8E7516202483C3839
:102CA000F4E7704700100040382200202404004060
:102CB0000346012811D0032B04D0062B05D007288A
:102CC00007D00AE00848094B06E00748084B3C30AB
:102CD00002E00548074B78300360C16000210161C4
:102CE000C0E90121FFF710B8C02100200004004016
:102CF000001000400014004038B51248FFF77EF97C
:102D000011480068C0061CD50E4C20680168406858
:102D10000090D4F80C054068A0F22B204042A4F8A3
:102D200040002046FFF737F9616CD4F87802C4F808
:102D3000781260642046BDE8384040F22B22FFF74D
:102D400043BD38BD34110020004C004038B5124856
:102D5000FFF754F911480068C0061CD50E4C2068D6
:102D6000016840680090D4F80C054068A0F22B2060
:102D70004042A4F840002046FFF70DF9616CD4F8FA
:102D80007802C4F8781260642046BDE8384040F20A
:102D90002B22FFF719BD38BDA016002000500040BF
:102DA00010B5806B0021C185C184FFF720F910BDEB
:102DB00070B5846B2068406994F83910C0F3C01076
:102DC0000025212904D118B1E584204600F062F8DD
:102DD0002068406994F83A10C0F38010222904D189
:102DE00018B1E585204600F047F8E06B40F0100090
:102DF000E0632046FFF7FBF870BD10B50146806B1D
:102E000009680968C90513D40021C1850168CA6829
:102E100022F48072CA6001684A6922F001024A61A4
:102E200001684A6922F040024A61202180F83A1084
:102E3000FFF716FD10BD10B5806BFFF77DFD10BDCF
:102E400010B50146806B09680968C9050CD40021DA
:102E5000C18401684A6922F080024A610068C16841
:102E600041F04001C16010BDFFF7A8FD10BD10B5D5
:102E7000806BFFF7A4FD10BD0168CA6822F4907250
:102E8000CA6001684A6922F001024A61202180F883
:102E90003A1070470168CA6822F0C002CA60202157
:102EA00080F83910704710B590F83A10222901D0F7
:102EB000022010BD8168B1F5805F11D00169002941
:102EC00001681FD0496801F07F03816A4A1C826251
:102ED0000B70C18D491E0904090CC18518D026E06C
:102EE0000269816A002A0268526805D0D2B20A805B
:102EF000816A491C8162ECE7C2F308020A80816A98
:102F0000891CF7E74A68816A4B1C83620A70E0E714
:102F10000168CA6822F49072CA6001684A6922F0A6
:102F200001024A61202180F83A10FFF799FC002045
:102F300010BD00002DE9F04104460068016921F44C
:102F40004052E168114301612068C16849F20C6296
:102F500091432369A268E5691A4363692B431A43C5
:102F60000A43C26020684169A26921F440710A43A2
:102F70004261E0696425B0F5004F974A974920689F
:102F80004FF032083FD0884201D090427CD1FEF70A
:102F9000BFFC00EBC00101EB001061688900B0FBD1
:102FA000F1F6FEF7B5FC00EBC00101EB0010616823
:102FB0008900B0FBF1F0B0FBF5F06FF01801484369
:102FC00006EB800108EB0110B0FBF5F000F0F00615
:102FD000FEF79EFC00EBC00101EB00106168890068
:102FE000B0FBF1F0B0FBF5F006EB0016FEF790FC3D
:102FF00000EBC00101EB001061688900B0FBF1F744
:10300000FEF786FCD2E0884201D090423DD1FEF727
:103010007FFC00EBC00101EB001061684900B0FBD0
:10302000F1F0B0FBF5F00601FEF772FC00EBC00119
:1030300001EB001061684900B0FBF1F7FEF768FC96
:1030400000EBC00101EB001061684900B0FBF1F03A
:10305000B0FBF5F06FF01801484307EB800108EB77
:10306000C100B0FBF5F000F0F80006EB4006FEF7FB
:103070004FFC00EBC00101EB001061684900B0FBA0
:10308000F1F7FEF745FC3CE055E0FEF729FC00EBCC
:10309000C00101EB001061684900B0FBF1F0B0FB2A
:1030A000F5F00601FEF71CFC00EBC00101EB00107F
:1030B00061684900B0FBF1F7FEF712FC00EBC001BC
:1030C00001EB001061684900B0FBF1F0B0FBF5F0D6
:1030D0006FF01801484307EB800108EBC100B0FB1B
:1030E000F5F000F0F80006EB4006FEF7F9FB00EB08
:1030F000C00101EB001061684900B0FBF1F7FEF779
:10310000EFFB00EBC00101EB001061684900B0FB70
:10311000F1F0B0FBF5F06FF01801484307EB8001C8
:1031200008EBC100B0FBF5F000F007002168304467
:103130008860BDE8F081FEF7D3FB00EBC00101EB36
:10314000001061688900B0FBF1F6FEF7C9FB00EBE7
:10315000C00101EB001061688900B0FBF1F0B0FB29
:10316000F5F06FF01801484306EB800108EB011001
:10317000B0FBF5F000F0F006FEF7B2FB00EBC0018B
:1031800001EB001061688900B0FBF1F0B0FBF5F0D5
:1031900006EB0016FEF7A4FB00EBC00101EB0010EC
:1031A00061688900B0FBF1F7FEF79AFB00EBC00104
:1031B00001EB001061688900B0FBF1F0B0FBF5F0A5
:1031C0006FF01801484307EB800108EB0110B0FBDA
:1031D000F5F000F00F00A9E70014014000100140D5
:1031E00090F83910212901D0022070478168B1F58B
:1031F000805F016A0BD04A1C026202680978516044
:10320000C18C491E0904090CC1840ED017E009883D
:103210000268C1F30801516001690029016A02D006
:10322000491C0162ECE7891CFBE70168CA6822F0CF
:103230008002CA600068C16841F04001C16000209E
:103240007047000038B51248FEF7D8FE11480068F4
:10325000C0061CD50E4C2068016840680090D4F868
:103260000C054068A0F22B204042A4F84000204604
:10327000FEF791FE616CD4F87802C4F878126064AD
:103280002046BDE8384040F22B22FFF79DBA38BDFA
:10329000C80B00200010014038B51248FEF7AEFE02
:1032A00011480068C0061CD50E4C206801684068B3
:1032B0000090D4F80C054068A0F22B204042A4F8FE
:1032C00040002046FEF767FE616CD4F87802C4F82F
:1032D000781260642046BDE8384040F22B22FFF7A8
:1032E00073BA38BDF00000200044004038B51248E1
:1032F000FEF784FE11480068C0061CD50E4C2068FD
:10330000016840680090D4F80C054068A0F22B20BA
:103310004042A4F840002046FEF73DFE616CD4F820
:103320007802C4F8781260642046BDE8384040F264
:103330002B22FFF749BA38BD5C0600200048004048
:1033400038B51248FEF75AFE11480068C0061CD571
:103350000E4C2068016840680090D4F80C05406865
:10336000A0F22B204042A4F840002046FEF713FEB6
:10337000616CD4F87802C4F8781260642046BDE825
:10338000384040F22B22FFF71FBA38BD0C1C00203A
:1033900000140140FEE7704710B502F061F9BDE886
:1033A00010400022024941F2883005F001BC0000C3
:1033B0009933000810B504460020A061E061E06088
:1033C000A0600C2060612046FEF7A0FE04F14C00D6
:1033D000606440F22B22A4F8A82404F51F70C4F8FE
:1033E00078022068C16841F01001C1602046D4F81D
:1033F0007812BDE81040FFF7E7B92DE9F041164615
:103400000F4680460A25FEF735F9044607E0FEF729
:1034100031F9001BA84202D90320BDE8F0814046E3
:10342000FEF7E6FD2128F2D0324639464046BDE897
:10343000F041FFF783BA000010B504460420FEF700
:1034400041FC4FF0E021086920F002020A610148C6
:10345000046010BD0800002070B5054600244FF43C
:103460007A7603E0304600F005F8641CAC42F9D3EC
:1034700070BD000070B54FF0E02500216C69094A6D
:10348000AB6912685043AA699A42FCD002D2A3EBFE
:10349000020302E0A4EB02063344194413468142BE
:1034A000F1D370BD0800002058B1026A002A0FD085
:1034B000137B082B0CD10968526A914208D100F0A5
:1034C00081BA04A340F225320BA10FA0FCF7DEBEA7
:1034D000704700002E2E5C4C5749505C6C77697029
:1034E0002D312E342E315C7372635C636F72655CB8
:1034F000646863702E6300006E6574696620213D08
:10350000204E554C4C000000417373657274696F16
:103510006E2022257322206661696C6564206174C7
:10352000206C696E6520256420696E2025730D0A64
:10353000000000002DE9FC41050017D02C6AD4B131
:10354000626B4FF03C01501C4FF480374FF0010686
:103550004FF6FF7319D01E32B2FBF1F0B84200D320
:1035600018460204120CA2830ED00EE029A34FF4D9
:10357000697231A103E027A340F2A63235A13BA036
:10358000FCF784FEBDE8FC81A683A26B501C0AD028
:103590001E32B2FBF1F1B94200D319460A04120CF3
:1035A000E28300D1E683A18BE08B814202D308B194
:1035B0000020A083A07B08B1A06A09E094F8242031
:1035C0007F2A01D8FF2003E0C02A03D36FF07F4099
:1035D000009000E00093E06A019028B9606A0099C9
:1035E000084040F08070019004F12401284604F066
:1035F0001BFB6946284604F04BFB01A9284604F052
:103600000EFB284604F048FB0A21204601F066F92B
:10361000B8E700002E2E5C4C5749505C6C776970FF
:103620002D312E342E315C7372635C636F72655C76
:10363000646863702E630000646863705F62696E23
:10364000643A206E6574696620213D204E554C4CCD
:1036500000000000646863705F62696E643A206411
:1036600068637020213D204E554C4C0041737365BA
:103670007274696F6E2022257322206661696C6501
:1036800064206174206C696E6520256420696E2059
:1036900025730D0A0000000070B5046A0546082174
:1036A000204601F01BF9002204F12401284601F014
:1036B000D7FD607B40F2E731401C60734FF4FA7035
:1036C000B1FBF0F0608370BD164810B5046825E0CA
:1036D000206A10B3C18B4A1EC283012906D0216A19
:1036E000888B421E8A8301280CD016E0216A20466E
:1036F000097B012903D00A2901D005290DD100F049
:103700008DFE0AE0216A2046097B012903D00A299F
:1037100001D0052901D101F02BF82468002CD7D164
:1037200010BD0000900000202DE9F04116460C4627
:1037300005002CD0002C35D0206930B157A340F2C1
:103740007E625FA168A0FCF7A1FD606930B153A360
:1037500040F27F626FA164A0FCF798FD00224FF455
:103760009A773946104604F0A7FA2061002823D042
:103770004089B84206D249A340F286626FA15AA09E
:10378000FCF784FD617B7D48002918D01AE043A333
:1037900040F27C627AA154A0FCF778FD6FF00D0036
:1037A000BDE8F0813DA340F27D627DA14EA0FCF713
:1037B0006DFD6FF00500F3E74FF0FF30F0E70168B3
:1037C000491C0160006820602069012100274068D1
:1037D0006061017060694170616995F826008870C8
:1037E0006069C770206803F0A5FC6169082E486015
:1037F00060690781606947816069C76008D0042EED
:1038000006D0032E07D1207B052801D0042802D141
:1038100061696868C860606907616069476160697B
:103820008761002095F82610814203D9291891F864
:10383000271000E0002100F11C026369401C80B2E7
:1038400099541028EED3002000F12C016269401C2D
:1038500080B257544028F7D3002000F16C01626910
:10386000401C80B257548028F7D361695448C1F88E
:10387000EC0027830020626900F1F0015054401CE5
:1038800080B24428F7D301223521204600F004FA03
:103890003146204600F04AFA002081E72E2E5C4C8B
:1038A0005749505C6C7769702D312E342E315C7322
:1038B00072635C636F72655C646863702E630000A2
:1038C000646863705F6372656174655F6D73673AA6
:1038D00020646863702D3E705F6F7574203D3D20DD
:1038E0004E554C4C00000000417373657274696F53
:1038F0006E2022257322206661696C6564206174E4
:10390000206C696E6520256420696E2025730D0A80
:1039100000000000646863705F6372656174655FD6
:103920006D73673A20646863702D3E6D73675F6FD7
:103930007574203D3D204E554C4C0000646863700A
:103940005F6372656174655F6D73673A2063686574
:10395000636B20746861742066697273742070628E
:1039600075662063616E20686F6C64207374727575
:10397000637420646863705F6D7367007400002077
:10398000646863705F6372656174655F6D73673AE5
:10399000206E6574696620213D204E554C4C000018
:1039A000646863705F6372656174655F6D73673AC5
:1039B000206468637020213D204E554C4C0000006F
:1039C00063825363F8B5046A06460C21204600F072
:1039D00085FF042221463046FFF7A6FE05001ED1D2
:1039E00004223221204600F057F9606A03F0B5FB4B
:1039F0000146204600F0F6F9204600F0B1FA208B8F
:103A0000F03081B2206904F0CBFE009643230A4ACD
:103A10002169606807F0D8FF204600F00FF8607B4E
:103A20004FF4FA71401C607342F60310B0FBF1F0E2
:103A300060832846F8BD000070BC000810B5040083
:103A400002D0206948B10FE0BDE810400FA340F25A
:103A5000C96217A11EA0FCF719BC0CA340F2CA62F0
:103A600026A11BA0FCF712FC606930B907A340F245
:103A7000CB622CA116A0FCF709FC206908B104F068
:103A800055FD00202061606110BD00002E2E5C4CB1
:103A90005749505C6C7769702D312E342E315C7330
:103AA00072635C636F72655C646863702E630000B0
:103AB000646863705F64656C6574655F6D73673AB5
:103AC000206468637020213D204E554C4C0000005E
:103AD000417373657274696F6E20222573222066AC
:103AE00061696C6564206174206C696E6520256471
:103AF00020696E2025730D0A000000006468637061
:103B00005F64656C6574655F6D73673A20646863B4
:103B1000702D3E705F6F757420213D204E554C4CCA
:103B200000000000646863705F64656C6574655FC5
:103B30006D73673A20646863702D3E6D73675F6FC5
:103B4000757420213D204E554C4C0000F8B5046A98
:103B50000646002060620621204600F0BFFE0122DA
:103B600021463046FFF7E0FD050030D10222392121
:103B7000204600F091F8B18C204600F0A9F904220B
:103B80003721204600F088F80121204600F0CEF8C9
:103B90000321204600F0CAF81C21204600F0C6F898
:103BA0000621204600F0C2F8204600F0D9F9208B0B
:103BB000F03081B2206904F0F3FD00964323114AEE
:103BC0002169606807F000FF2046FFF737FF607B40
:103BD000401CC1B26173062902D20120884000E076
:103BE0003C2000EB4001C1EBC0104FF6FF7101EA31
:103BF000C0004FF4FA7100F2F310B0FBF1F06083F3
:103C00002846F8BD70BC000870B50B480025046854
:103C10000EE0206A58B1418B012903D9A1F10101BD
:103C2000418304E003D14583204600F079FF2468F6
:103C3000002CEED170BD00009000002070B5046A29
:103C40000020144EA062E062F178A6F1280509B1C7
:103C5000E9682163317909B1296901E0216B4908DB
:103C60006163717909B1696900E0216BA163A168A1
:103C700009696162B17921B1A86903F05BFAA062B8
:103C80000120A073F079002803D0E86903F052FA0C
:103C9000E06270BDBC33012070B50E460446018B56
:103CA000901C08441546442806D90BA340F2F6425E
:103CB000124913A0FCF7EAFA208B61690144401C09
:103CC000208381F8F060208B61690144401C2083CF
:103CD00081F8F05070BD00002E2E5C4C5749505CAE
:103CE0006C7769702D312E342E315C7372635C6396
:103CF0006F72655C646863702E63000078BD0008B5
:103D0000417373657274696F6E2022257322206679
:103D100061696C6564206174206C696E652025643E
:103D200020696E2025730D0A0000000070B504465E
:103D3000008B0D46442806D307A340F201520FA181
:103D40001DA0FCF7A3FA208B61690144401C20836D
:103D500081F8F05070BD00002E2E5C4C5749505C2D
:103D60006C7769702D312E342E315C7372635C6315
:103D70006F72655C646863702E63000064686370D2
:103D80005F6F7074696F6E5F627974653A20646802
:103D900063702D3E6F7074696F6E735F6F75745FC3
:103DA0006C656E203C20444843505F4F5054494F4F
:103DB0004E535F4C454E0000417373657274696FDA
:103DC0006E2022257322206661696C65642061740F
:103DD000206C696E6520256420696E2025730D0AAC
:103DE0000000000070B50446008B0D46001D4428FD
:103DF00006D913A34FF4A2621AA12AA0FCF746FA2F
:103E0000208B6269290E0244401C208382F8F01046
:103E1000208B6269290C0244401C208382F8F01038
:103E2000208B6269290A0244401C208382F8F0102A
:103E3000208B61690144401C208381F8F05070BDE3
:103E40002E2E5C4C5749505C6C7769702D312E34A6
:103E50002E315C7372635C636F72655C646863705F
:103E60002E630000646863705F6F7074696F6E5FCB
:103E70006C6F6E673A20646863702D3E6F70746972
:103E80006F6E735F6F75745F6C656E202B203420CE
:103E90003C3D20444843505F4F5054494F4E535F80
:103EA0004C454E00417373657274696F6E20222514
:103EB0007322206661696C6564206174206C696E90
:103EC0006520256420696E2025730D0A000000001E
:103ED00070B50446008B0D46801C442806D90BA300
:103EE0004FF4A162124913A0FCF7D0F9208B62694C
:103EF000290A0244401C208382F8F010208B61695B
:103F00000144401C208381F8F05070BD2E2E5C4C83
:103F10005749505C6C7769702D312E342E315C73AB
:103F200072635C636F72655C646863702E6300002B
:103F300034BD0008417373657274696F6E20222569
:103F40007322206661696C6564206174206C696EFF
:103F50006520256420696E2025730D0A000000008D
:103F600010B5040002D0606948B10FE0BDE8104010
:103F700015A340F2DE621DA125A0FCF787B912A3AC
:103F800040F2DF622DA122A0FCF780F9208B4428AB
:103F900006D30DA34FF4DC6233A11DA0FCF776F924
:103FA000208B6269FF210244401C208382F8F010BC
:103FB000002105E062690244401C208382F8F01071
:103FC000208B4428F6D310BD2E2E5C4C5749505CF4
:103FD0006C7769702D312E342E315C7372635C63A3
:103FE0006F72655C646863702E6300006468637060
:103FF0005F6F7074696F6E5F747261696C65723A3D
:10400000206468637020213D204E554C4C00000018
:10401000417373657274696F6E2022257322206666
:1040200061696C6564206174206C696E652025642B
:1040300020696E2025730D0A00000000646863701B
:104040005F6F7074696F6E5F747261696C65723AEC
:1040500020646863702D3E6D73675F6F75742021F7
:104060003D204E554C4C0A00646863705F6F70745D
:10407000696F6E5F747261696C65723A206468631F
:10408000702D3E6F7074696F6E735F6F75745F6CC7
:10409000656E203C20444843505F4F5054494F4E7A
:1040A000535F4C454E0A00002DE9F34F83B00021C9
:1040B00004468B4601910A21A048FCF7FEF90498BA
:1040C00040892C2814D30499F0264868A0600498ED
:1040D0000089049F04E0721A401A3F6896B280B2C9
:1040E00037B17989B142F6D98046D7F804A0FAE011
:1040F0006FF0010005B0BDE8F08FB01C1FFA80F929
:104100007A89701C4FF0FF34824203D90AEB060013
:10411000407803E0386808B14068007834290546E3
:104120005CD00BDC032934D003DC29B301290DD189
:1041300027E0062936D0332908D146E0352955D065
:1041400036295CD03A2962D03B2968D0002530441A
:10415000801C86B2002D0ED0002000900A2C06D3C1
:1041600077A340F2AD527FA183A0FCF78FF873488C
:10417000005D00285BD09CE00020761E0546B6B2AC
:10418000E5E7042803D06EA340F27B5222E0062428
:10419000DDE70425042803D269A34FF4B06210E0E0
:1041A0000724D4E7810704D065A340F285527DA19E
:1041B0006AE0082800D30825A84204D260A34FF47F
:1041C000B1627CA160E00824C1E7042804D05CA3AC
:1041D00040F28C527CA157E00324B8E7012803D0B9
:1041E00057A34FF4B26206E00024B0E7012804D0E0
:1041F00053A340F2945277A146E00124A7E7042894
:1042000003D04FA34FF4B362E4E702249FE70428EE
:1042100003D04BA340F29C52DCE7042497E7042828
:1042200003D047A34FF4B462D4E705248FE7042DED
:1042300001D22A4600E004224B466946384604F083
:10424000EBF8042D18D9A80704D03DA340F2B352CF
:1042500063A119E0394901200855009802F06AFF6E
:1042600036492D1F2839EDB241F8240009F1040028
:104270001FFA80F9641C71E7042D0BD0012D0DD0BD
:104280002FA340F2BD525BA13BA0FBF7FFFF6FF0F5
:1042900005002FE7009802F060FF01E09DF80000A4
:1042A000264900900120085524480099283840F8F4
:1042B00024107889B04215D8311AA8EB00008EB2CC
:1042C0001FFA80F8464515D2B8F1000F12D03F68AA
:1042D00037B91BA340F2C9524BA127A0FBF7D6FF69
:1042E000D7F804A037B11AF80610FF2902D04645C6
:1042F000FFF403AF1149087868B1A1F1280000224A
:1043000000680A70012808D0022802D0032809D0CA
:1043100001E04FF0010B019838B100206C260190AC
:10432000EC20D6E64FF0010BF7E7BBF1000F4FF0A2
:104330000000AED083462C266C20CAE6BC33012098
:104340002E2E5C4C5749505C6C7769702D312E34A1
:104350002E315C7372635C636F72655C646863705A
:104360002E630000636865636B206465636F64653A
:104370005F69647800000000417373657274696F4F
:104380006E2022257322206661696C656420617449
:10439000206C696E6520256420696E2025730D0AE6
:1043A000000000006C656E20252034203D3D20304B
:1043B000000000006C656E203E3D206465636F6404
:1043C000655F6C656E0000006C656E203D3D2034BD
:1043D000000000006C656E203D3D203100000000B3
:1043E0006465636F64655F6C656E20252034203DD5
:1043F0003D203000696E76616C6964206465636F8E
:1044000064655F6C656E00006E657874207062751F
:104410006620776173206E756C6C0000F8B5046AD5
:1044200005460421204600F059FA03222146284679
:10443000FFF77AF906001BD1022239212046FFF747
:104440002BFCA98C2046FFF743FD2046FFF788FD93
:10445000208BF03081B2206904F0A2F9009543234B
:104460000F4A2169606807F0AFFA2046FFF7E6FAC5
:10447000607B401CC0B260730A2804D24FF47A718A
:1044800010FB01F001E042F2107080B24FF4FA71BB
:1044900000F2F310B0FBF1F060833046F8BD00008D
:1044A00070BC0008F8B5046A06460321204600F0F7
:1044B00015FA032221463046FFF736F9050028D1C8
:1044C000022239212046FFF7E7FB4FF41071204606
:1044D000FFF7FEFC042232212046FFF7DDFB606A75
:1044E00002F03BFE01462046FFF77CFC2046FFF72A
:1044F00037FD208BF03081B2206904F051F900962D
:1045000043230F4A2169606807F05EFA2046FFF7EF
:1045100095FA607B401CC0B260730A2804D24FF445
:104520007A7110FB01F001E042F2107080B24FF49A
:10453000FA7100F2F310B0FBF1F060832846F8BD89
:1045400070BC00082DE9F041046A05465668A06871
:10455000174630B142A340F211624AA14EA0FBF7C8
:1045600095FE78894FF000082C2872D33078022805
:104570006FD1002095F8261008E02A18331892F819
:1045800027201B7F9A4264D1401CC0B28142F4D8DC
:10459000706802F0E2FD216888425AD1394620460F
:1045A000FFF782FD00BB47494878E8B1A1F1280236
:1045B0001079052804D0062817D0022836D048E004
:1045C000207B012806D003280BD0042809D0052819
:1045D00007D03EE02846FFF731FB2846FFF75CF89E
:1045E00037E02846FEF7A6FF33E0207B032805D0FE
:1045F000012803D0042801D005282AD128462E6A94
:1046000003F000FB3049284603F00EFB2E492846F4
:1046100003F005FB2C49284603F03AFB0C213046F9
:1046200000F05CF92846FFF791FA12E0207B06289B
:104630000FD1A4F81A802E462D6A887848B1906868
:1046400002F078FD2862A86800696862304600F0D0
:10465000D1F83846C4F80880BDE8F04103F066BFE1
:104660002E2E5C4C5749505C6C7769702D312E347E
:104670002E315C7372635C636F72655C6468637037
:104680002E6300007265706C79207761736E2774F9
:104690002066726565640000417373657274696FAA
:1046A0006E2022257322206661696C656420617426
:1046B000206C696E6520256420696E2025730D0AC3
:1046C00000000000BC3301206CBC0008F8B5046A8F
:1046D00005460021204600F001F9002020626062BA
:1046E000A062E062A063606320630722214628463F
:1046F000FFF71AF8060013D12046FFF731FC208B94
:10470000F03081B2206904F04BF80095432304F1A6
:1047100020022169606807F057F92046FFF78EF9FB
:10472000607B401CC0B260730A2804D24FF47A71D7
:1047300010FB01F001E042F2107080B24FF4FA7108
:1047400000F2F310B0FBF1F06083284603F05AFA50
:104750000649284603F068FA0449284603F05FFA40
:104760000249284603F094FA3046F8BD6CBC0008B4
:10477000F8B5046A05460521204600F0AFF803228B
:1047800021462846FEF7D0FF06001CD1022239211F
:104790002046FFF781FAA98C2046FFF799FB2046B7
:1047A000FFF7DEFB208BF03081B2206903F0F8FFC9
:1047B0000095432304F120022169606807F004F9A1
:1047C0002046FFF73BF9607B401CC0B260730A28AB
:1047D00004D24FF4FA6110FB01F001E044F62060CE
:1047E00080B24FF4FA7100F2F310B0FBF1F0608385
:1047F0003046F8BDF8B5046A06460121204600F0AF
:104800006DF8032221463046FEF78EFF050048D1A1
:10481000022239212046FFF73FFAB18C2046FFF7EC
:1048200057FB042232212046FFF736FA606A02F075
:1048300094FC01462046FFF7D5FA04223621204693
:10484000FFF72AFA206A02F088FC01462046FFF7AB
:10485000C9FA042237212046FFF71EFA012120461B
:10486000FFF764FA03212046FFF760FA1C21204677
:10487000FFF75CFA06212046FFF758FA2046FFF7BB
:104880006FFB208BF03081B2206903F089FF009626
:104890004323114A2169606807F096F82046FFF724
:1048A000CDF8607B401CC1B26173062902D20120A1
:1048B000884000E03C2000EB4001C1EBC0104FF607
:1048C000FF7101EAC0004FF4FA7100F2F310B0FB7F
:1048D000F1F060832846F8BD70BC0008027B8A4274
:1048E00003D00173002141734183704770B5050007
:1048F0006FF00D0649D095F82D002C6A20F00800C5
:1049000085F82D0080064FD5A88C3611B0F5107FA4
:104910004AD3002C41D0606808B107F03FF8206905
:1049200030B125A340F29E222CA132A0FBF7AEFCB1
:10493000A06830B120A340F29F2239A12DA0FBF73F
:10494000A5FC3C212046FBF7B8FD07F017F8606096
:10495000002829D0017A442241F020010172354912
:10496000606806F04DFE43223249606806F0D8FECA
:104970002A463149606807F00EF82846FFF7E6F846
:10498000A0B1284600F062F80EE00BA340F27A22B4
:104990002AA118A0FBF77AFC06E03C2002F080FD7B
:1049A000040001D02C62CCE7304670BD15F82D1FF5
:1049B00041F00801297070BD2E2E5C4C5749505CA7
:1049C0006C7769702D312E342E315C7372635C63A9
:1049D0006F72655C646863702E6300007062756658
:1049E00020705F6F7574207761736E277420667214
:1049F00065656400417373657274696F6E2022256A
:104A00007322206661696C6564206174206C696E34
:104A10006520256420696E2025730D0A00000000C2
:104A20007265706C79207761736E27742066726589
:104A3000656400006CBC0008454500086E6574693B
:104A40006620213D204E554C4C00000010B500283A
:104A50001CD050F8204F417B002C21F008014173FD
:104A60001DD0606818B106F099FF00206060A06852
:104A700030B10BA340F2DA4212A117A0FBF706FCFB
:104A80002046BDE810400021FFF728BFBDE81040D8
:104A900003A340F2C7421BA10FA0FBF7F7BB10BD59
:104AA0002E2E5C4C5749505C6C7769702D312E343A
:104AB0002E315C7372635C636F72655C64686370F3
:104AC0002E6300007265706C79207761736E2774B5
:104AD0002066726565640000417373657274696F66
:104AE0006E2022257322206661696C6564206174E2
:104AF000206C696E6520256420696E2025730D0A7F
:104B000000000000646863705F73746F703A206E19
:104B10006574696620213D204E554C4C0000000014
:104B200010B5026A0446117B0C2913D0062911D056
:104B3000012913D008291ED0052928D004292AD0FC
:104B4000032930D1507B022813D22046BDE8104003
:104B5000FFF7A8BCBDE81040FEF7F8BF507B052862
:104B600004D82046BDE81040FFF744BE2046FFF7BA
:104B7000ADFD2046EEE7507B0128204603D8BDE876
:104B80001040FEF789BDBDE81040FEF7D3BCBDE87C
:104B90001040FFF7EDBD507B0828E7D82046BDE860
:104BA0001040FFF73BBC10BD10B5FEF78DFDBDE812
:104BB0001040002202494EF6602003F0F9BF0000C9
:104BC000A94B000810B5FFF71FF8BDE81040002200
:104BD00002494FF4FA7003F0EBBF0000C54B000828
:104BE0002DE9F84F90468946050010D0B8F80A0024
:104BF0002A286FD3D8F804604FF4807A344634F80A
:104C00000E0F504566D12079062863D108E033A302
:104C100040F2BB223BA13FA0FBF738FBBDE8F88F79
:104C20006079042856D16088082853D1D4F80E0042
:104C30000090A169281D05D0686818B1814201D192
:104C4000012700E000270FB1012300E0022304F157
:104C500008026946284600F027FDE088504503D049
:104C6000B0F5007F36D131E0002F33D0022002F0C2
:104C700063FAE080D4F80E00A0616868C4F80E0002
:104C800095F82600062806D014A340F211322C49CC
:104C900020A0FBF7FBFAA068C4F81200A089E0820C
:104CA000A0683060A089B080D9F80010A160B9F880
:104CB0000400A081D9F80010C6F80610B9F8040065
:104CC0007081AA6941462846904703E06946284614
:104CD000FEF7EAFB404603F029FC9FE72E2E5C4CD2
:104CE0005749505C6C7769702D312E342E315C73CE
:104CF00072635C6E657469665C6574686172702E5F
:104D0000630000006E6574696620213D204E554C9D
:104D10004C000000417373657274696F6E20222528
:104D20007322206661696C6564206174206C696E11
:104D30006520256420696E2025730D0A000000009F
:104D4000F0BC000870B50A4E0546002404EB840050
:104D500006EB8000817C29B18068A84202D1204600
:104D600000F026F9641CE4B20A2CEFD370BD0000F9
:104D7000CC3201202DE9F34F80460A2085B0002473
:104D800002900746A346A2460190A14600904C49D6
:104D900004EB840001EB80060390B57C0A2F18D049
:104DA000002D24D0012D08D0022D06D245A340F2BB
:104DB0002B124EA15DA0FBF769FAB8F1000F0CD0E1
:104DC000D8F800007168884207D160B207B0BDE82A
:104DD000F08F002DE6D167B209E0012D15D0022D2C
:104DE00005D3F07C504502D361B282460191641C28
:104DF000E4B20A2CCBD3069881074FF0FF30E5D4FC
:104E00000A2F15D017DAFCB23AE02D48039950F872
:104E100021000028F07C05D04845E8D361B28146E6
:104E20000091E4E75845E2D361B283460291DEE7A0
:104E30000699C907CAD001990A290EDACCB22048CE
:104E400004EB840150F8210070B11EA340F27112EE
:104E500041A136A0FBF71AFA06E002990A2902DB03
:104E600000990A29B2DACCB20A2C06D315A340F273
:104E700083123FA12DA0FBF709FA204600F098F815
:104E80000A2C06D30FA340F2871239A127A0FBF703
:104E9000FDF90B4804EB840100EB8105A87C30B1DF
:104EA00008A34FF4C47237A120A0FBF7EFF9B8F1C3
:104EB000000F02D0D8F8000068600020E87484E792
:104EC000CC3201202E2E5C4C5749505C6C776970B7
:104ED0002D312E342E315C7372635C6E657469669D
:104EE0005C6574686172702E630000007374617495
:104EF00065203D3D204554484152505F5354415434
:104F0000455F50454E44494E47207C7C2073746178
:104F10007465203E3D204554484152505F535441F2
:104F200054455F535441424C450000004173736542
:104F30007274696F6E2022257322206661696C6528
:104F400064206174206C696E6520256420696E2080
:104F500025730D0A000000006172705F7461626C5D
:104F6000655B695D2E71203D3D204E554C4C000027
:104F700069203C204152505F5441424C455F5349A7
:104F80005A4500006172705F7461626C655B695DB7
:104F90002E7374617465203D3D2045544841525044
:104FA0005F53544154455F454D5054590000000033
:104FB00070B5074D00EB8004002655F8240018B1A9
:104FC00003F0B4FA45F8246005EB8400867470BDE4
:104FD000CC3201202DE9FC4115460E46040006D1D5
:104FE00045A340F275324EA151A0FBF74FF936B9F7
:104FF00041A340F2763259A14DA0FBF747F935B9EC
:105000003DA340F2773258A149A0FBF73FF90E21AA
:10501000304603F039FB18B16FF00100BDE8FC81A8
:105020002146286800F0AEFE08B1534B3CE02868EA
:10503000C0F303110E2922D0A168636800EA0102BF
:105040000B409A420BD080B2A0F57E41A93906D020
:1050500014F10C0F2FD0E06868B304F10C05474B36
:10506000474A187800EB800102EB81018F7C022F08
:1050700024D32F6849688F4220D102462CE00120BA
:105080008DF8000000208DF801005E208DF80200F0
:1050900068786B4600F07F008DF80300A8788DF8E3
:1050A0000400E8788DF8050004F127023146204617
:1050B00000F086FAB2E76FF00300AFE7002000EBE4
:1050C000800102EB81018F7C022F0AD32F6849688F
:1050D0008F4206D1C2B21A703146204600F052F813
:1050E0009CE7401C40B20A28E9DB324629462046AC
:1050F00000F0B6F892E700002E2E5C4C5749505C49
:105100006C7769702D312E342E315C7372635C6E56
:10511000657469665C6574686172702E6300000076
:105120006E6574696620213D204E554C4C00000090
:10513000417373657274696F6E2022257322206635
:1051400061696C6564206174206C696E65202564FA
:1051500020696E2025730D0A000000007120213D9A
:10516000204E554C4C00000069706164647220212F
:105170003D204E554C4C000060BC000854000020FF
:10518000CC32012070B505460E46134802EB820171
:1051900000EB8104A07C022806D210A34FF45372C6
:1051A00018A124A0FBF772F8A07C022809D1E07CAA
:1051B000E42806D3211D284600F0F0F908B90320A1
:1051C000A07404F10C0305F1270231462846BDE81E
:1051D000704000F0F5B90000CC3201202E2E5C4C5E
:1051E0005749505C6C7769702D312E342E315C73C9
:1051F00072635C6E657469665C6574686172702E5A
:10520000630000006172705F7461626C655B617263
:10521000705F6964785D2E7374617465203E3D2013
:105220004554484152505F53544154455F53544193
:10523000424C4500417373657274696F6E2022257C
:105240007322206661696C6564206174206C696EEC
:105250006520256420696E2025730D0A000000007A
:105260002DE9F74F82B0884602984FF0FF3B273078
:105270000090086816465F46029900F083FD0028FA
:1052800029D1D8F80000C0F303110E2923D0B8F1BA
:10529000000F20D000281ED001214046FFF76AFDF4
:1052A00004001AD4DFF8DCA004EB84090AEB8905BA
:1052B000A87C002814D0012814D0022809D232A3D7
:1052C00040F219423AA144A0FAF7E0FFA87C012875
:1052D00008D03EB10DE06FF00D0005B0BDE8F08FD5
:1052E0000120A8744146029800F058F90746002EA4
:1052F000F3D0A87C02280AD3424805F10C033146BA
:105300000470009A029800F05BF9074638E0D04636
:10531000012835D10025344640F23E476089218975
:10532000884207D1206828B117A33A4636A12AA09F
:10533000FAF7ACFF207B012803D12468002CEDD1C3
:1053400075B121890022032002F0B6FC050016D0B9
:10535000314602F071FF40B1284603F0E7F80EE055
:105360003546304603F0E0FA4DB158F8290044467E
:1053700008B103F0DBF844F82950002700E05F464D
:105380003846AAE7CC3201202E2E5C4C5749505C9F
:105390006C7769702D312E342E315C7372635C6EC4
:1053A000657469665C6574686172702E63000000E4
:1053B0006172705F7461626C655B695D2E737461AC
:1053C0007465203D3D2050454E44494E47206F7244
:1053D00020535441424C4500417373657274696FA8
:1053E0006E2022257322206661696C6564206174D9
:1053F000206C696E6520256420696E2025730D0A76
:1054000000000000540000206E6F207061636B6527
:10541000742071756575657320616C6C6F77656458
:10542000210000002DE9F05FDDF82CB09846914690
:105430008A46070006D132A340F2A5423AA13EA017
:10544000FAF724FF00222A21032002F035FC06008F
:1054500053D070892A2806D229A34FF4966241A11D
:1054600035A0FAF713FF75680D9805F10E0401F0E9
:1054700063FEE08097F82600062806D020A34FF4AC
:10548000976245492CA0FAF701FFD8F80010A160F7
:10549000B8F80400A081DBF80010C4F81210BBF8C3
:1054A0000400E082D9F800102960B9F80400A8804F
:1054B000DAF80010C5F80610BAF8040068810A98F6
:1054C00031460068C4F80E000C980068A0614FF4E3
:1054D0008070208008206080062020710420607188
:1054E0004FF4C160A881BA693846904704463046F7
:1054F00003F01CF82046BDE8F09F4FF0FF30FAE7BC
:105500002E2E5C4C5749505C6C7769702D312E34CF
:105510002E315C7372635C6E657469665C65746879
:105520006172702E630000006E6574696620213D13
:10553000204E554C4C000000417373657274696FC6
:105540006E2022257322206661696C656420617477
:10555000206C696E6520256420696E2025730D0A14
:1055600000000000636865636B20746861742066E6
:105570006972737420706275662063616E20686F53
:105580006C642073747275637420657468617270E2
:105590005F68647200000000F0BC00081FB50123C2
:1055A000064C021DCDE90213CDE9002400F12703CA
:1055B0001946A21FFFF736FF04B010BD66BC0008F5
:1055C0002DE9F041054690F826004C681E46174626
:1055D0008846062806D00CA340F2A312144915A051
:1055E000FAF754FE30682060B088A0803868C4F8AC
:1055F0000600B88860810820A08141462846AA6933
:10560000BDE8F041104700002E2E5C4C5749505C1D
:105610006C7769702D312E342E315C7372635C6E41
:10562000657469665C6574686172702E6300000061
:10563000F0BC0008417373657274696F6E20222597
:105640007322206661696C6564206174206C696EE8
:105650006520256420696E2025730D0A0000000076
:1056600070B5104D002404EB840005EB8000827CB3
:1056700092B1C17C491CC9B2C174F02906D2012A79
:1056800002D0032A06D007E0022905D32046FFF7FF
:105690008FFC01E002218174641CE4B20A2CE2D385
:1056A00070BD0000CC3201202DE9F041044690F895
:1056B00026001F4615460E46062806D01EA340F2B9
:1056C000C31227A130A0FAF7E1FD86B3306870B3AA
:1056D000214600F057FB50BB3078C0F303100E2872
:1056E00026D039463046FFF745FB00281DDB314AFE
:1056F00000EB800102EB81000223837484602B683D
:10570000C360AB8803820023C37452F821605EB18A
:1057100042F821302B4604F1270231462046FFF79C
:105720004FFF304602F002FF0020BDE8F081FFE7A6
:105730006FF00D00F9E700002E2E5C4C5749505CCD
:105740006C7769702D312E342E315C7372635C6E10
:10575000657469665C6574686172702E6300000030
:105760006E657469662D3E6877616464725F6C650E
:105770006E203D3D204554484152505F48574144BA
:1057800044525F4C454E0000417373657274696FFB
:105790006E2022257322206661696C656420617425
:1057A000206C696E6520256420696E2025730D0AC2
:1057B00000000000CC32012070B5044640890D463F
:1057C0000E2842D9606801788689CA0714D0012959
:1057D00005D006221F49FAF7FFFD48B10CE04178D9
:1057E00051B980785E2807D1607B40F0100002E05C
:1057F000607B40F008006073082E03D0B6F5C16FDF
:1058000023D116E095F82D0080061ED56FF00D010E
:10581000204602F039FF38B10FA340F24F5218A1D1
:1058200020A0FAF733FD10E02946204600F000FCE6
:1058300009E095F82D00800607D5224605F12701DD
:105840002846FFF7CDF9002070BD204602F06EFE1D
:10585000F9E7000060BC00082E2E5C4C5749505CF4
:105860006C7769702D312E342E315C7372635C6EEF
:10587000657469665C6574686172702E630000000F
:1058800043616E2774206D6F7665206F7665722098
:1058900068656164657220696E207061636B657410
:1058A00000000000417373657274696F6E202225D9
:1058B0007322206661696C6564206174206C696E76
:1058C0006520256420696E2025730D0A0000000004
:1058D00010B5040005D10AA3C02214A116A0FAF73E
:1058E000D5FC652084F82E006E2084F82F001D481A
:1058F00060611D48A061204601F044F9002010BD00
:105900002E2E5C4C5749505C6C7769702D312E34CB
:105910002E315C7372635C6E657469665C65746875
:1059200065726E657469662E630000006E65746949
:1059300066213D4E554C4C00417373657274696F1E
:105940006E2022257322206661696C656420617473
:10595000206C696E6520256420696E2025730D0A10
:1059600000000000D54F0008BD6C000870B505466A
:1059700001F046F9040009D02A692946904705003C
:1059800002D0204602F0D2FD284670BD4FF0FF3015
:1059900070BD000003490A685206FCD5C2B24A60D5
:1059A00070470000001001400A46032100F040B992
:1059B0002DE9FE4F456804468A4628780007870E81
:1059C00079428846204602F05FFE00287AD120897D
:1059D000042877D36068007800287FD008287DD11C
:1059E000414901260868C0F303120E2A00D100269F
:1059F0008946514600F0C6F900286FD1002E6DD0BF
:105A0000208908286AD3204600F098F9002865D13B
:105A10002221204602F038FE002831D039462046A7
:105A200002F032FE18B131A398223AA147E0218951
:105A30000022022002F040F906004FD0718907F1E0
:105A40000800814205D229A3A1223FA14CA0FAF768
:105A50001DFC2146304602F0EFFB18B123A3A5221E
:105A600052A12CE041463046756802F00DFE10B19F
:105A70001EA3AB220CE0204602F058FD344609E09C
:105A80006FF02101204602F0FFFD18B117A3B522E7
:105A900050A114E06068D9F80010E9605A49002666
:105AA0000968296106704680FF2028726E81394698
:105AB000204602F0E9FD30B10CA3DA2253A130A058
:105AC000FAF7E4FB0AE00121CDE90061FF2300229F
:105AD000CDF808A00449204600F0BAFB2046BDE8F6
